{
  "contractName": "CreditDefaultSwap",
  "abi": [
    {
      "constant": true,
      "inputs": [],
      "name": "maturity",
      "outputs": [
        {
          "name": "",
          "type": "uint8"
        }
      ],
      "payable": false,
      "stateMutability": "view",
      "type": "function"
    },
    {
      "constant": true,
      "inputs": [],
      "name": "probability",
      "outputs": [
        {
          "name": "",
          "type": "uint8"
        }
      ],
      "payable": false,
      "stateMutability": "view",
      "type": "function"
    },
    {
      "constant": true,
      "inputs": [],
      "name": "spread",
      "outputs": [
        {
          "name": "",
          "type": "uint8"
        }
      ],
      "payable": false,
      "stateMutability": "view",
      "type": "function"
    },
    {
      "constant": false,
      "inputs": [],
      "name": "annualpay",
      "outputs": [
        {
          "name": "",
          "type": "bool"
        }
      ],
      "payable": false,
      "stateMutability": "nonpayable",
      "type": "function"
    },
    {
      "constant": true,
      "inputs": [],
      "name": "df",
      "outputs": [
        {
          "name": "",
          "type": "uint8"
        }
      ],
      "payable": false,
      "stateMutability": "view",
      "type": "function"
    },
    {
      "constant": false,
      "inputs": [],
      "name": "balance",
      "outputs": [
        {
          "name": "",
          "type": "uint8"
        }
      ],
      "payable": false,
      "stateMutability": "nonpayable",
      "type": "function"
    },
    {
      "constant": true,
      "inputs": [],
      "name": "recr",
      "outputs": [
        {
          "name": "",
          "type": "uint8"
        }
      ],
      "payable": false,
      "stateMutability": "view",
      "type": "function"
    },
    {
      "inputs": [
        {
          "name": "_revovery",
          "type": "uint8"
        },
        {
          "name": "_df",
          "type": "uint8"
        },
        {
          "name": "_probability",
          "type": "uint8"
        },
        {
          "name": "_maturity",
          "type": "uint8"
        },
        {
          "name": "_spread",
          "type": "uint8"
        }
      ],
      "payable": false,
      "stateMutability": "nonpayable",
      "type": "constructor"
    }
  ],
  "bytecode": "0x6060604052341561000f57600080fd5b60405160a0806104318339810160405280805190602001909190805190602001909190805190602001909190805190602001909190805190602001909190505033600060056101000a81548173ffffffffffffffffffffffffffffffffffffffff021916908373ffffffffffffffffffffffffffffffffffffffff160217905550846000806101000a81548160ff021916908360ff16021790555083600060016101000a81548160ff021916908360ff16021790555082600060026101000a81548160ff021916908360ff16021790555081600060036101000a81548160ff021916908360ff16021790555080600060046101000a81548160ff021916908360ff16021790555050505050506103078061012a6000396000f300606060405260043610610083576000357c0100000000000000000000000000000000000000000000000000000000900463ffffffff168063204f83f914610088578063481456f9146100b75780635c25c76c146100e65780638e5d79ac146101155780639d35f59414610142578063b69ef8a814610171578063cc408194146101a0575b600080fd5b341561009357600080fd5b61009b6101cf565b604051808260ff1660ff16815260200191505060405180910390f35b34156100c257600080fd5b6100ca6101e2565b604051808260ff1660ff16815260200191505060405180910390f35b34156100f157600080fd5b6100f96101f5565b604051808260ff1660ff16815260200191505060405180910390f35b341561012057600080fd5b610128610208565b604051808215151515815260200191505060405180910390f35b341561014d57600080fd5b6101556102a0565b604051808260ff1660ff16815260200191505060405180910390f35b341561017c57600080fd5b6101846102b3565b604051808260ff1660ff16815260200191505060405180910390f35b34156101ab57600080fd5b6101b36102c9565b604051808260ff1660ff16815260200191505060405180910390f35b600060039054906101000a900460ff1681565b600060029054906101000a900460ff1681565b600060049054906101000a900460ff1681565b60003373ffffffffffffffffffffffffffffffffffffffff16600060059054906101000a900473ffffffffffffffffffffffffffffffffffffffff1673ffffffffffffffffffffffffffffffffffffffff1614151561026a576000905061029d565b6001600060038282829054906101000a900460ff160392506101000a81548160ff021916908360ff160217905550600190505b90565b600060019054906101000a900460ff1681565b60008060039054906101000a900460ff16905090565b6000809054906101000a900460ff16815600a165627a7a7230582017492fc1efb814dd1fc414ca69e2d4192ba76aca0b14f74538a74b70256910bf0029",
  "source": "pragma solidity ^0.4.4;\n\nimport './OTC.sol';\n\ncontract Platform{\n    OTC.book book;\n    struct swap{\n        address writer;\n        address buyer;\n        uint8 spread;\n        uint8 status; // 0 for pre, 1 for open , 2 for executed;\n    }\n\n\n    address public admin ;\n    mapping (address => swap) public swapbook;\n    address[] public swaps;\n\n\n    function Platform() {\n        admin = msg.sender;\n    }\n    // recovery rate\n    // Discounted Factor\n\n    function registration() payable returns(bool){\n        uint regiscapital;\n        address paticipants;\n        regiscapital = msg.value;\n        paticipants = msg.sender;\n        if(OTC.addMember(book, paticipants,regiscapital) == false){\n            revert();\n        }\n        else{\n            return true;\n        }\n    }\n\n\n    function createCDS(uint8 Recovery, uint8 Df, uint8 Probability, uint8 maturity )returns(bool){\n        if(OTC.checkMember(book, msg.sender) != true){  // if not registed, cannot write contract\n            return false;\n        }\n        uint8 spread;\n        spread = 100 + Recovery; // for now use this, it will be a math function in the future, or client will do the calculation.\n        if(OTC.checkMargin(book, msg.sender, spread ) != true){\n            return false;\n        }\n        CreditDefaultSwap theswap = new CreditDefaultSwap (Recovery, Df, Probability, maturity, spread );\n        swapbook[theswap].writer = msg.sender; // who writes the contract\n        swapbook[theswap].status = 0;\n        swapbook[theswap].spread = spread;\n        swaps.push(theswap);\n        return true;\n    }\n\n    function monitor() returns(address[]){\n        return swaps;\n    }\n\n\n    function buyCDS(address order) returns(bool){\n        if(OTC.checkMember(book, msg.sender) != true){  // if not registed, cannot write contract\n            return false;\n        }\n\n        if(OTC.checkMargin(book, msg.sender, swapbook[order].spread ) != true){ // if you dont have money you can't buy this\n            return false;\n        }\n        swapbook[order].buyer = msg.sender;\n        return true;\n    }\n\n    function pay(address order) returns(bool){\n        OTC.spending(book, msg.sender, swapbook[order].spread);\n        OTC.addMargin(book, swapbook[order].writer, swapbook[order].spread);\n        CreditDefaultSwap con = CreditDefaultSwap(order);\n        if(con.annualpay()){\n            return true;\n        }\n        else{\n            return false;\n        }\n    }\n\n    function getAdmin() returns(address){\n            return admin;\n    }\n\n\n    function getBalance() returns(uint){\n       return OTC.check(book, msg.sender);\n\n    }\n\n    function addMoney() payable returns(bool){\n        OTC.addMargin(book, msg.sender, msg.value);\n    }\n}\n\n\n\n\n\n// the contrct itself does not hold value, a netting will be done later.\ncontract CreditDefaultSwap{\n    uint8 public recr;\n    uint8 public df;\n    uint8 public probability;\n    uint8 public maturity; // times of payments\n    uint8 public spread;\n    address key;\n\n    function CreditDefaultSwap(uint8 _revovery, uint8 _df, uint8 _probability, uint8 _maturity, uint8 _spread){\n        key = msg.sender;\n        recr = _revovery;\n        df = _df;\n        probability = _probability;\n        maturity = _maturity;\n        spread = _spread;\n    }\n\n    function annualpay() returns(bool){\n        if(key != msg.sender){\n            return false;\n    }\n        else{ // add check it is the right amount\n            maturity -= 1;\n            return true;\n        }\n    }\n    function balance() returns(uint8){\n        return maturity;\n    }\n\n\n}\n",
  "sourcePath": "/Users/haozhouwang/Desktop/cds/contracts/Platform.sol",
  "compiler": {
    "name": "solc",
    "version": "0.4.18+commit.9cf6e910.Emscripten.clang"
  },
  "schemaVersion": "1.0.1",
  "updatedAt": "2017-11-28T16:21:58.040Z"
}