{
  "contractName": "OTC",
  "abi": [
    {
      "constant": false,
      "inputs": [
        {
          "name": "self",
          "type": "OTC.book storage"
        },
        {
          "name": "addr",
          "type": "address"
        },
        {
          "name": "regisFund",
          "type": "uint256"
        }
      ],
      "name": "addMember",
      "outputs": [
        {
          "name": "",
          "type": "bool"
        }
      ],
      "payable": false,
      "stateMutability": "nonpayable",
      "type": "function"
    },
    {
      "constant": false,
      "inputs": [
        {
          "name": "self",
          "type": "OTC.book storage"
        },
        {
          "name": "addr",
          "type": "address"
        },
        {
          "name": "deposit",
          "type": "uint256"
        }
      ],
      "name": "addMargin",
      "outputs": [],
      "payable": false,
      "stateMutability": "nonpayable",
      "type": "function"
    },
    {
      "constant": false,
      "inputs": [
        {
          "name": "self",
          "type": "OTC.book storage"
        },
        {
          "name": "addr",
          "type": "address"
        },
        {
          "name": "spread",
          "type": "uint256"
        }
      ],
      "name": "checkMargin",
      "outputs": [
        {
          "name": "",
          "type": "bool"
        }
      ],
      "payable": false,
      "stateMutability": "nonpayable",
      "type": "function"
    },
    {
      "constant": false,
      "inputs": [
        {
          "name": "self",
          "type": "OTC.book storage"
        },
        {
          "name": "addr",
          "type": "address"
        }
      ],
      "name": "checkMember",
      "outputs": [
        {
          "name": "",
          "type": "bool"
        }
      ],
      "payable": false,
      "stateMutability": "nonpayable",
      "type": "function"
    },
    {
      "constant": false,
      "inputs": [
        {
          "name": "self",
          "type": "OTC.book storage"
        },
        {
          "name": "addr",
          "type": "address"
        },
        {
          "name": "purchase",
          "type": "uint256"
        }
      ],
      "name": "spending",
      "outputs": [],
      "payable": false,
      "stateMutability": "nonpayable",
      "type": "function"
    },
    {
      "constant": false,
      "inputs": [
        {
          "name": "self",
          "type": "OTC.book storage"
        },
        {
          "name": "addr",
          "type": "address"
        }
      ],
      "name": "check",
      "outputs": [
        {
          "name": "",
          "type": "uint256"
        }
      ],
      "payable": false,
      "stateMutability": "nonpayable",
      "type": "function"
    },
    {
      "constant": false,
      "inputs": [
        {
          "name": "self",
          "type": "OTC.book storage"
        },
        {
          "name": "addr",
          "type": "address"
        }
      ],
      "name": "delMember",
      "outputs": [
        {
          "name": "",
          "type": "bool"
        }
      ],
      "payable": false,
      "stateMutability": "nonpayable",
      "type": "function"
    }
  ],
  "bytecode": "0x6060604052341561000f57600080fd5b61065d8061001e6000396000f300606060405260043610610083576000357c0100000000000000000000000000000000000000000000000000000000900463ffffffff16806327e377581461008857806365695939146100e057806375abd18d14610120578063825f09ec146101785780638df7fe47146101c7578063c1322ab814610207578063c529688114610252575b600080fd5b6100c6600480803590602001909190803573ffffffffffffffffffffffffffffffffffffffff169060200190919080359060200190919050506102a1565b604051808215151515815260200191505060405180910390f35b61011e600480803590602001909190803573ffffffffffffffffffffffffffffffffffffffff169060200190919080359060200190919050506103ac565b005b61015e600480803590602001909190803573ffffffffffffffffffffffffffffffffffffffff16906020019091908035906020019091905050610400565b604051808215151515815260200191505060405180910390f35b6101ad600480803590602001909190803573ffffffffffffffffffffffffffffffffffffffff16906020019091905050610463565b604051808215151515815260200191505060405180910390f35b610205600480803590602001909190803573ffffffffffffffffffffffffffffffffffffffff169060200190919080359060200190919050506104cd565b005b61023c600480803590602001909190803573ffffffffffffffffffffffffffffffffffffffff16906020019091905050610521565b6040518082815260200191505060405180910390f35b610287600480803590602001909190803573ffffffffffffffffffffffffffffffffffffffff1690602001909190505061056d565b604051808215151515815260200191505060405180910390f35b60008360000160008473ffffffffffffffffffffffffffffffffffffffff1673ffffffffffffffffffffffffffffffffffffffff16815260200190815260200160002060009054906101000a900460ff161561030057600090506103a5565b60018460000160008573ffffffffffffffffffffffffffffffffffffffff1673ffffffffffffffffffffffffffffffffffffffff16815260200190815260200160002060006101000a81548160ff021916908315150217905550818460010160008573ffffffffffffffffffffffffffffffffffffffff1673ffffffffffffffffffffffffffffffffffffffff16815260200190815260200160002081905550600190505b9392505050565b808360010160008473ffffffffffffffffffffffffffffffffffffffff1673ffffffffffffffffffffffffffffffffffffffff16815260200190815260200160002060008282540192505081905550505050565b6000816003028460010160008573ffffffffffffffffffffffffffffffffffffffff1673ffffffffffffffffffffffffffffffffffffffff168152602001908152602001600020541015610457576000905061045c565b600190505b9392505050565b60008260000160008373ffffffffffffffffffffffffffffffffffffffff1673ffffffffffffffffffffffffffffffffffffffff16815260200190815260200160002060009054906101000a900460ff16156104c257600190506104c7565b600090505b92915050565b808360010160008473ffffffffffffffffffffffffffffffffffffffff1673ffffffffffffffffffffffffffffffffffffffff16815260200190815260200160002060008282540392505081905550505050565b60008260010160008373ffffffffffffffffffffffffffffffffffffffff1673ffffffffffffffffffffffffffffffffffffffff16815260200190815260200160002054905092915050565b60008260000160008373ffffffffffffffffffffffffffffffffffffffff1673ffffffffffffffffffffffffffffffffffffffff16815260200190815260200160002060009054906101000a900460ff16156105cc576000905061062b565b60008360000160008473ffffffffffffffffffffffffffffffffffffffff1673ffffffffffffffffffffffffffffffffffffffff16815260200190815260200160002060006101000a81548160ff021916908315150217905550600190505b929150505600a165627a7a723058206eacb9f523334b1204b6a7781843b50d839fc1882b58d53c18a2620fd35493c10029",
  "source": "pragma solidity ^0.4.4;\n\nlibrary OTC {\n\n    struct book{\n        mapping (address => bool) members;\n        mapping (address => uint) margin;\n    }\n\n    function addMember(book storage self, address addr, uint regisFund) returns(bool){\n        if (self.members[addr]){\n            return false; // alredy a member\n        }\n\n        self.members[addr] = true;\n        self.margin[addr] = regisFund;\n        return true;\n    }\n\n    function checkMember(book storage self, address addr) returns(bool){\n        if(self.members[addr]){\n            return true;\n        }\n        return false;\n    }\n\n    function delMember(book storage self, address addr) returns(bool){\n        if (self.members[addr]){\n            return false; // already a member\n        }\n\n        self.members[addr] = false;\n        return true;\n    }\n\n    function checkMargin(book storage self, address addr, uint spread) returns(bool){\n        if(self.margin[addr] < (3 * spread)){\n            return false;\n        }\n        else{\n            return true;\n        }\n    }\n\n    function spending(book storage self, address addr, uint purchase) {\n        self.margin[addr] -= purchase;\n    }\n\n    function addMargin(book storage self, address addr, uint deposit){\n        self.margin[addr] += deposit;\n    }\n\n    function check(book storage self, address addr) returns(uint){\n        return self.margin[addr];\n    }\n\n}\n",
  "sourcePath": "/Users/haozhouwang/Desktop/cds/contracts/OTC.sol",
  "compiler": {
    "name": "solc",
    "version": "0.4.18+commit.9cf6e910.Emscripten.clang"
  },
  "schemaVersion": "1.0.1",
  "updatedAt": "2017-11-28T16:32:36.504Z"
}