{
  "contractName": "Platform",
  "abi": [
    {
      "constant": false,
      "inputs": [
        {
          "name": "order",
          "type": "address"
        }
      ],
      "name": "pay",
      "outputs": [
        {
          "name": "",
          "type": "bool"
        }
      ],
      "payable": false,
      "stateMutability": "nonpayable",
      "type": "function"
    },
    {
      "constant": false,
      "inputs": [],
      "name": "getBalance",
      "outputs": [
        {
          "name": "",
          "type": "uint256"
        }
      ],
      "payable": false,
      "stateMutability": "nonpayable",
      "type": "function"
    },
    {
      "constant": false,
      "inputs": [],
      "name": "addMoney",
      "outputs": [
        {
          "name": "",
          "type": "bool"
        }
      ],
      "payable": true,
      "stateMutability": "payable",
      "type": "function"
    },
    {
      "constant": false,
      "inputs": [],
      "name": "monitor",
      "outputs": [
        {
          "name": "",
          "type": "address[]"
        }
      ],
      "payable": false,
      "stateMutability": "nonpayable",
      "type": "function"
    },
    {
      "constant": false,
      "inputs": [],
      "name": "registration",
      "outputs": [
        {
          "name": "",
          "type": "bool"
        }
      ],
      "payable": true,
      "stateMutability": "payable",
      "type": "function"
    },
    {
      "constant": false,
      "inputs": [],
      "name": "getAdmin",
      "outputs": [
        {
          "name": "",
          "type": "address"
        }
      ],
      "payable": false,
      "stateMutability": "nonpayable",
      "type": "function"
    },
    {
      "constant": true,
      "inputs": [
        {
          "name": "",
          "type": "address"
        }
      ],
      "name": "swapbook",
      "outputs": [
        {
          "name": "writer",
          "type": "address"
        },
        {
          "name": "buyer",
          "type": "address"
        },
        {
          "name": "spread",
          "type": "uint8"
        },
        {
          "name": "status",
          "type": "uint8"
        }
      ],
      "payable": false,
      "stateMutability": "view",
      "type": "function"
    },
    {
      "constant": false,
      "inputs": [
        {
          "name": "Recovery",
          "type": "uint8"
        },
        {
          "name": "Df",
          "type": "uint8"
        },
        {
          "name": "Probability",
          "type": "uint8"
        },
        {
          "name": "maturity",
          "type": "uint8"
        }
      ],
      "name": "createCDS",
      "outputs": [
        {
          "name": "",
          "type": "bool"
        }
      ],
      "payable": false,
      "stateMutability": "nonpayable",
      "type": "function"
    },
    {
      "constant": true,
      "inputs": [
        {
          "name": "",
          "type": "uint256"
        }
      ],
      "name": "swaps",
      "outputs": [
        {
          "name": "",
          "type": "address"
        }
      ],
      "payable": false,
      "stateMutability": "view",
      "type": "function"
    },
    {
      "constant": true,
      "inputs": [],
      "name": "admin",
      "outputs": [
        {
          "name": "",
          "type": "address"
        }
      ],
      "payable": false,
      "stateMutability": "view",
      "type": "function"
    },
    {
      "constant": false,
      "inputs": [
        {
          "name": "order",
          "type": "address"
        }
      ],
      "name": "buyCDS",
      "outputs": [
        {
          "name": "",
          "type": "bool"
        }
      ],
      "payable": false,
      "stateMutability": "nonpayable",
      "type": "function"
    },
    {
      "inputs": [],
      "payable": false,
      "stateMutability": "nonpayable",
      "type": "constructor"
    }
  ],
  "bytecode": "0x6060604052341561000f57600080fd5b33600260006101000a81548173ffffffffffffffffffffffffffffffffffffffff021916908373ffffffffffffffffffffffffffffffffffffffff1602179055506116f18061005f6000396000f3006060604052600436106100af576000357c0100000000000000000000000000000000000000000000000000000000900463ffffffff1680630c11dedd146100b457806312065fe0146101055780631b3f48421461012e5780633241992a14610150578063443bd1d0146101ba5780636e9960c3146101dc578063a77f5d2a14610231578063e02616a1146102f7578063f09c582914610359578063f851a440146103bc578063fde3a9ea14610411575b600080fd5b34156100bf57600080fd5b6100eb600480803573ffffffffffffffffffffffffffffffffffffffff16906020019091905050610462565b604051808215151515815260200191505060405180910390f35b341561011057600080fd5b610118610784565b6040518082815260200191505060405180910390f35b61013661084e565b604051808215151515815260200191505060405180910390f35b341561015b57600080fd5b61016361090e565b6040518080602001828103825283818151815260200191508051906020019060200280838360005b838110156101a657808201518184015260208101905061018b565b505050509050019250505060405180910390f35b6101c26109a2565b604051808215151515815260200191505060405180910390f35b34156101e757600080fd5b6101ef610a92565b604051808273ffffffffffffffffffffffffffffffffffffffff1673ffffffffffffffffffffffffffffffffffffffff16815260200191505060405180910390f35b341561023c57600080fd5b610268600480803573ffffffffffffffffffffffffffffffffffffffff16906020019091905050610abc565b604051808573ffffffffffffffffffffffffffffffffffffffff1673ffffffffffffffffffffffffffffffffffffffff1681526020018473ffffffffffffffffffffffffffffffffffffffff1673ffffffffffffffffffffffffffffffffffffffff1681526020018360ff1660ff1681526020018260ff1660ff16815260200194505050505060405180910390f35b341561030257600080fd5b61033f600480803560ff1690602001909190803560ff1690602001909190803560ff1690602001909190803560ff16906020019091905050610b46565b604051808215151515815260200191505060405180910390f35b341561036457600080fd5b61037a6004808035906020019091905050610f21565b604051808273ffffffffffffffffffffffffffffffffffffffff1673ffffffffffffffffffffffffffffffffffffffff16815260200191505060405180910390f35b34156103c757600080fd5b6103cf610f60565b604051808273ffffffffffffffffffffffffffffffffffffffff1673ffffffffffffffffffffffffffffffffffffffff16815260200191505060405180910390f35b341561041c57600080fd5b610448600480803573ffffffffffffffffffffffffffffffffffffffff16906020019091905050610f86565b604051808215151515815260200191505060405180910390f35b60008073__OTC___________________________________638df7fe47600033600360008873ffffffffffffffffffffffffffffffffffffffff1673ffffffffffffffffffffffffffffffffffffffff16815260200190815260200160002060010160149054906101000a900460ff166040518463ffffffff167c0100000000000000000000000000000000000000000000000000000000028152600401808481526020018373ffffffffffffffffffffffffffffffffffffffff1673ffffffffffffffffffffffffffffffffffffffff1681526020018260ff168152602001935050505060006040518083038186803b151561055e57600080fd5b6102c65a03f4151561056f57600080fd5b50505073__OTC___________________________________63656959396000600360008773ffffffffffffffffffffffffffffffffffffffff1673ffffffffffffffffffffffffffffffffffffffff16815260200190815260200160002060000160009054906101000a900473ffffffffffffffffffffffffffffffffffffffff16600360008873ffffffffffffffffffffffffffffffffffffffff1673ffffffffffffffffffffffffffffffffffffffff16815260200190815260200160002060010160149054906101000a900460ff166040518463ffffffff167c0100000000000000000000000000000000000000000000000000000000028152600401808481526020018373ffffffffffffffffffffffffffffffffffffffff1673ffffffffffffffffffffffffffffffffffffffff1681526020018260ff168152602001935050505060006040518083038186803b15156106cd57600080fd5b6102c65a03f415156106de57600080fd5b5050508290508073ffffffffffffffffffffffffffffffffffffffff16638e5d79ac6000604051602001526040518163ffffffff167c0100000000000000000000000000000000000000000000000000000000028152600401602060405180830381600087803b151561075057600080fd5b6102c65a03f1151561076157600080fd5b5050506040518051905015610779576001915061077e565b600091505b50919050565b600073__OTC___________________________________63c1322ab86000336000604051602001526040518363ffffffff167c0100000000000000000000000000000000000000000000000000000000028152600401808381526020018273ffffffffffffffffffffffffffffffffffffffff1673ffffffffffffffffffffffffffffffffffffffff1681526020019250505060206040518083038186803b151561082e57600080fd5b6102c65a03f4151561083f57600080fd5b50505060405180519050905090565b600073__OTC___________________________________6365695939600033346040518463ffffffff167c0100000000000000000000000000000000000000000000000000000000028152600401808481526020018373ffffffffffffffffffffffffffffffffffffffff1673ffffffffffffffffffffffffffffffffffffffff168152602001828152602001935050505060006040518083038186803b15156108f757600080fd5b6102c65a03f4151561090857600080fd5b50505090565b61091661121f565b600480548060200260200160405190810160405280929190818152602001828054801561099857602002820191906000526020600020905b8160009054906101000a900473ffffffffffffffffffffffffffffffffffffffff1673ffffffffffffffffffffffffffffffffffffffff168152602001906001019080831161094e575b5050505050905090565b60008060003491503390506000151573__OTC___________________________________6327e37758600084866000604051602001526040518463ffffffff167c0100000000000000000000000000000000000000000000000000000000028152600401808481526020018373ffffffffffffffffffffffffffffffffffffffff1673ffffffffffffffffffffffffffffffffffffffff168152602001828152602001935050505060206040518083038186803b1515610a6157600080fd5b6102c65a03f41515610a7257600080fd5b5050506040518051905015151415610a8957600080fd5b60019250505090565b6000600260009054906101000a900473ffffffffffffffffffffffffffffffffffffffff16905090565b60036020528060005260406000206000915090508060000160009054906101000a900473ffffffffffffffffffffffffffffffffffffffff16908060010160009054906101000a900473ffffffffffffffffffffffffffffffffffffffff16908060010160149054906101000a900460ff16908060010160159054906101000a900460ff16905084565b60008060006001151573__OTC___________________________________63825f09ec6000336000604051602001526040518363ffffffff167c0100000000000000000000000000000000000000000000000000000000028152600401808381526020018273ffffffffffffffffffffffffffffffffffffffff1673ffffffffffffffffffffffffffffffffffffffff1681526020019250505060206040518083038186803b1515610bf757600080fd5b6102c65a03f41515610c0857600080fd5b505050604051805190501515141515610c245760009250610f17565b8660640191506001151573__OTC___________________________________6375abd18d600033866000604051602001526040518463ffffffff167c0100000000000000000000000000000000000000000000000000000000028152600401808481526020018373ffffffffffffffffffffffffffffffffffffffff1673ffffffffffffffffffffffffffffffffffffffff1681526020018260ff168152602001935050505060206040518083038186803b1515610ce157600080fd5b6102c65a03f41515610cf257600080fd5b505050604051805190501515141515610d0e5760009250610f17565b8686868685610d1b611233565b808660ff1660ff1681526020018560ff1660ff1681526020018460ff1660ff1681526020018360ff1660ff1681526020018260ff1660ff16815260200195505050505050604051809103906000f0801515610d7557600080fd5b905033600360008373ffffffffffffffffffffffffffffffffffffffff1673ffffffffffffffffffffffffffffffffffffffff16815260200190815260200160002060000160006101000a81548173ffffffffffffffffffffffffffffffffffffffff021916908373ffffffffffffffffffffffffffffffffffffffff1602179055506000600360008373ffffffffffffffffffffffffffffffffffffffff1673ffffffffffffffffffffffffffffffffffffffff16815260200190815260200160002060010160156101000a81548160ff021916908360ff16021790555081600360008373ffffffffffffffffffffffffffffffffffffffff1673ffffffffffffffffffffffffffffffffffffffff16815260200190815260200160002060010160146101000a81548160ff021916908360ff16021790555060048054806001018281610ec39190611243565b9160005260206000209001600083909190916101000a81548173ffffffffffffffffffffffffffffffffffffffff021916908373ffffffffffffffffffffffffffffffffffffffff16021790555050600192505b5050949350505050565b600481815481101515610f3057fe5b90600052602060002090016000915054906101000a900473ffffffffffffffffffffffffffffffffffffffff1681565b600260009054906101000a900473ffffffffffffffffffffffffffffffffffffffff1681565b60006001151573__OTC___________________________________63825f09ec6000336000604051602001526040518363ffffffff167c0100000000000000000000000000000000000000000000000000000000028152600401808381526020018273ffffffffffffffffffffffffffffffffffffffff1673ffffffffffffffffffffffffffffffffffffffff1681526020019250505060206040518083038186803b151561103457600080fd5b6102c65a03f4151561104557600080fd5b505050604051805190501515141515611061576000905061121a565b6001151573__OTC___________________________________6375abd18d600033600360008873ffffffffffffffffffffffffffffffffffffffff1673ffffffffffffffffffffffffffffffffffffffff16815260200190815260200160002060010160149054906101000a900460ff166000604051602001526040518463ffffffff167c0100000000000000000000000000000000000000000000000000000000028152600401808481526020018373ffffffffffffffffffffffffffffffffffffffff1673ffffffffffffffffffffffffffffffffffffffff1681526020018260ff168152602001935050505060206040518083038186803b151561116757600080fd5b6102c65a03f4151561117857600080fd5b505050604051805190501515141515611194576000905061121a565b33600360008473ffffffffffffffffffffffffffffffffffffffff1673ffffffffffffffffffffffffffffffffffffffff16815260200190815260200160002060010160006101000a81548173ffffffffffffffffffffffffffffffffffffffff021916908373ffffffffffffffffffffffffffffffffffffffff160217905550600190505b919050565b602060405190810160405280600081525090565b6040516104318061129583390190565b81548183558181151161126a57818360005260206000209182019101611269919061126f565b5b505050565b61129191905b8082111561128d576000816000905550600101611275565b5090565b9056006060604052341561000f57600080fd5b60405160a0806104318339810160405280805190602001909190805190602001909190805190602001909190805190602001909190805190602001909190505033600060056101000a81548173ffffffffffffffffffffffffffffffffffffffff021916908373ffffffffffffffffffffffffffffffffffffffff160217905550846000806101000a81548160ff021916908360ff16021790555083600060016101000a81548160ff021916908360ff16021790555082600060026101000a81548160ff021916908360ff16021790555081600060036101000a81548160ff021916908360ff16021790555080600060046101000a81548160ff021916908360ff16021790555050505050506103078061012a6000396000f300606060405260043610610083576000357c0100000000000000000000000000000000000000000000000000000000900463ffffffff168063204f83f914610088578063481456f9146100b75780635c25c76c146100e65780638e5d79ac146101155780639d35f59414610142578063b69ef8a814610171578063cc408194146101a0575b600080fd5b341561009357600080fd5b61009b6101cf565b604051808260ff1660ff16815260200191505060405180910390f35b34156100c257600080fd5b6100ca6101e2565b604051808260ff1660ff16815260200191505060405180910390f35b34156100f157600080fd5b6100f96101f5565b604051808260ff1660ff16815260200191505060405180910390f35b341561012057600080fd5b610128610208565b604051808215151515815260200191505060405180910390f35b341561014d57600080fd5b6101556102a0565b604051808260ff1660ff16815260200191505060405180910390f35b341561017c57600080fd5b6101846102b3565b604051808260ff1660ff16815260200191505060405180910390f35b34156101ab57600080fd5b6101b36102c9565b604051808260ff1660ff16815260200191505060405180910390f35b600060039054906101000a900460ff1681565b600060029054906101000a900460ff1681565b600060049054906101000a900460ff1681565b60003373ffffffffffffffffffffffffffffffffffffffff16600060059054906101000a900473ffffffffffffffffffffffffffffffffffffffff1673ffffffffffffffffffffffffffffffffffffffff1614151561026a576000905061029d565b6001600060038282829054906101000a900460ff160392506101000a81548160ff021916908360ff160217905550600190505b90565b600060019054906101000a900460ff1681565b60008060039054906101000a900460ff16905090565b6000809054906101000a900460ff16815600a165627a7a7230582017492fc1efb814dd1fc414ca69e2d4192ba76aca0b14f74538a74b70256910bf0029a165627a7a723058208f063fc85085ec516da791c6c5567a279cbfd260d7d32eefe16021ccb69466900029",
  "source": "pragma solidity ^0.4.4;\n\nimport './OTC.sol';\n\ncontract Platform{\n    OTC.book book;\n    struct swap{\n        address writer;\n        address buyer;\n        uint8 spread;\n        uint8 status; // 0 for pre, 1 for open , 2 for executed;\n    }\n\n\n    address public admin ;\n    mapping (address => swap) public swapbook;\n    address[] public swaps;\n\n\n    function Platform() {\n        admin = msg.sender;\n    }\n    // recovery rate\n    // Discounted Factor\n\n    function registration() payable returns(bool){\n        uint regiscapital;\n        address paticipants;\n        regiscapital = msg.value;\n        paticipants = msg.sender;\n        if(OTC.addMember(book, paticipants,regiscapital) == false){\n            revert();\n        }\n        else{\n            return true;\n        }\n    }\n\n\n    function createCDS(uint8 Recovery, uint8 Df, uint8 Probability, uint8 maturity )returns(bool){\n        if(OTC.checkMember(book, msg.sender) != true){  // if not registed, cannot write contract\n            return false;\n        }\n        uint8 spread;\n        spread = 100 + Recovery; // for now use this, it will be a math function in the future, or client will do the calculation.\n        if(OTC.checkMargin(book, msg.sender, spread ) != true){\n            return false;\n        }\n        CreditDefaultSwap theswap = new CreditDefaultSwap (Recovery, Df, Probability, maturity, spread );\n        swapbook[theswap].writer = msg.sender; // who writes the contract\n        swapbook[theswap].status = 0;\n        swapbook[theswap].spread = spread;\n        swaps.push(theswap);\n        return true;\n    }\n\n    function monitor() returns(address[]){\n        return swaps;\n    }\n\n\n    function buyCDS(address order) returns(bool){\n        if(OTC.checkMember(book, msg.sender) != true){  // if not registed, cannot write contract\n            return false;\n        }\n\n        if(OTC.checkMargin(book, msg.sender, swapbook[order].spread ) != true){ // if you dont have money you can't buy this\n            return false;\n        }\n        swapbook[order].buyer = msg.sender;\n        return true;\n    }\n\n    function pay(address order) returns(bool){\n        OTC.spending(book, msg.sender, swapbook[order].spread);\n        OTC.addMargin(book, swapbook[order].writer, swapbook[order].spread);\n        CreditDefaultSwap con = CreditDefaultSwap(order);\n        if(con.annualpay()){\n            return true;\n        }\n        else{\n            return false;\n        }\n    }\n\n    function getAdmin() returns(address){\n            return admin;\n    }\n\n\n    function getBalance() returns(uint){\n       return OTC.check(book, msg.sender);\n\n    }\n\n    function addMoney() payable returns(bool){\n        OTC.addMargin(book, msg.sender, msg.value);\n    }\n}\n\n\n\n\n\n// the contrct itself does not hold value, a netting will be done later.\ncontract CreditDefaultSwap{\n    uint8 public recr;\n    uint8 public df;\n    uint8 public probability;\n    uint8 public maturity; // times of payments\n    uint8 public spread;\n    address key;\n\n    function CreditDefaultSwap(uint8 _revovery, uint8 _df, uint8 _probability, uint8 _maturity, uint8 _spread){\n        key = msg.sender;\n        recr = _revovery;\n        df = _df;\n        probability = _probability;\n        maturity = _maturity;\n        spread = _spread;\n    }\n\n    function annualpay() returns(bool){\n        if(key != msg.sender){\n            return false;\n    }\n        else{ // add check it is the right amount\n            maturity -= 1;\n            return true;\n        }\n    }\n    function balance() returns(uint8){\n        return maturity;\n    }\n\n\n}\n",
  "sourcePath": "/Users/haozhouwang/Desktop/cds/contracts/Platform.sol",
  "compiler": {
    "name": "solc",
    "version": "0.4.18+commit.9cf6e910.Emscripten.clang"
  },
  "schemaVersion": "1.0.1",
  "updatedAt": "2017-11-28T16:32:36.520Z"
}